{
  "contractName": "StablePriceOracle",
  "abi": [
    {
      "inputs": [
        {
          "internalType": "contract AggregatorInterface",
          "name": "_usdOracle",
          "type": "address"
        },
        {
          "internalType": "uint256[]",
          "name": "_rentPrices",
          "type": "uint256[]"
        }
      ],
      "payable": false,
      "stateMutability": "nonpayable",
      "type": "constructor"
    },
    {
      "anonymous": false,
      "inputs": [
        {
          "indexed": false,
          "internalType": "address",
          "name": "oracle",
          "type": "address"
        }
      ],
      "name": "OracleChanged",
      "type": "event"
    },
    {
      "anonymous": false,
      "inputs": [
        {
          "indexed": true,
          "internalType": "address",
          "name": "previousOwner",
          "type": "address"
        },
        {
          "indexed": true,
          "internalType": "address",
          "name": "newOwner",
          "type": "address"
        }
      ],
      "name": "OwnershipTransferred",
      "type": "event"
    },
    {
      "anonymous": false,
      "inputs": [
        {
          "indexed": false,
          "internalType": "uint256[]",
          "name": "prices",
          "type": "uint256[]"
        }
      ],
      "name": "RentPriceChanged",
      "type": "event"
    },
    {
      "constant": true,
      "inputs": [],
      "name": "isOwner",
      "outputs": [
        {
          "internalType": "bool",
          "name": "",
          "type": "bool"
        }
      ],
      "payable": false,
      "stateMutability": "view",
      "type": "function"
    },
    {
      "constant": true,
      "inputs": [],
      "name": "owner",
      "outputs": [
        {
          "internalType": "address",
          "name": "",
          "type": "address"
        }
      ],
      "payable": false,
      "stateMutability": "view",
      "type": "function"
    },
    {
      "constant": false,
      "inputs": [],
      "name": "renounceOwnership",
      "outputs": [],
      "payable": false,
      "stateMutability": "nonpayable",
      "type": "function"
    },
    {
      "constant": true,
      "inputs": [
        {
          "internalType": "uint256",
          "name": "",
          "type": "uint256"
        }
      ],
      "name": "rentPrices",
      "outputs": [
        {
          "internalType": "uint256",
          "name": "",
          "type": "uint256"
        }
      ],
      "payable": false,
      "stateMutability": "view",
      "type": "function"
    },
    {
      "constant": false,
      "inputs": [
        {
          "internalType": "address",
          "name": "newOwner",
          "type": "address"
        }
      ],
      "name": "transferOwnership",
      "outputs": [],
      "payable": false,
      "stateMutability": "nonpayable",
      "type": "function"
    },
    {
      "constant": true,
      "inputs": [],
      "name": "usdOracle",
      "outputs": [
        {
          "internalType": "contract AggregatorInterface",
          "name": "",
          "type": "address"
        }
      ],
      "payable": false,
      "stateMutability": "view",
      "type": "function"
    },
    {
      "constant": true,
      "inputs": [
        {
          "internalType": "string",
          "name": "name",
          "type": "string"
        },
        {
          "internalType": "uint256",
          "name": "expires",
          "type": "uint256"
        },
        {
          "internalType": "uint256",
          "name": "duration",
          "type": "uint256"
        }
      ],
      "name": "price",
      "outputs": [
        {
          "internalType": "uint256",
          "name": "",
          "type": "uint256"
        }
      ],
      "payable": false,
      "stateMutability": "view",
      "type": "function"
    },
    {
      "constant": false,
      "inputs": [
        {
          "internalType": "uint256[]",
          "name": "_rentPrices",
          "type": "uint256[]"
        }
      ],
      "name": "setPrices",
      "outputs": [],
      "payable": false,
      "stateMutability": "nonpayable",
      "type": "function"
    },
    {
      "constant": false,
      "inputs": [
        {
          "internalType": "contract AggregatorInterface",
          "name": "_usdOracle",
          "type": "address"
        }
      ],
      "name": "setOracle",
      "outputs": [],
      "payable": false,
      "stateMutability": "nonpayable",
      "type": "function"
    },
    {
      "constant": true,
      "inputs": [
        {
          "internalType": "string",
          "name": "name",
          "type": "string"
        },
        {
          "internalType": "uint256",
          "name": "expires",
          "type": "uint256"
        },
        {
          "internalType": "uint256",
          "name": "duration",
          "type": "uint256"
        }
      ],
      "name": "premium",
      "outputs": [
        {
          "internalType": "uint256",
          "name": "",
          "type": "uint256"
        }
      ],
      "payable": false,
      "stateMutability": "view",
      "type": "function"
    },
    {
      "constant": true,
      "inputs": [
        {
          "internalType": "bytes4",
          "name": "interfaceID",
          "type": "bytes4"
        }
      ],
      "name": "supportsInterface",
      "outputs": [
        {
          "internalType": "bool",
          "name": "",
          "type": "bool"
        }
      ],
      "payable": false,
      "stateMutability": "view",
      "type": "function"
    }
  ],
  "bytecode": "0x60806040523480156200001157600080fd5b506040516200125638038062001256833981810160405260408110156200003757600080fd5b8101908080519060200190929190805160405193929190846401000000008211156200006257600080fd5b838201915060208201858111156200007957600080fd5b82518660208202830111640100000000821117156200009757600080fd5b8083526020830192505050908051906020019060200280838360005b83811015620000d0578082015181840152602081019050620000b3565b50505050905001604052505050336000806101000a81548173ffffffffffffffffffffffffffffffffffffffff021916908373ffffffffffffffffffffffffffffffffffffffff1602179055506000809054906101000a900473ffffffffffffffffffffffffffffffffffffffff1673ffffffffffffffffffffffffffffffffffffffff16600073ffffffffffffffffffffffffffffffffffffffff167f8be0079c531659141344cd1fd0a4f28419497f9722a3daafe3b4186f6b6457e060405160405180910390a381600260006101000a81548173ffffffffffffffffffffffffffffffffffffffff021916908373ffffffffffffffffffffffffffffffffffffffff160217905550620001eb81620001f360201b60201c565b505062000374565b62000203620002a360201b60201c565b6200020d57600080fd5b806001908051906020019062000225929190620002fa565b507f73422d94aedd596c2d4d39f27a01033adc390a9054efaf259afefd95ef7331df816040518080602001828103825283818151815260200191508051906020019060200280838360005b838110156200028d57808201518184015260208101905062000270565b505050509050019250505060405180910390a150565b60008060009054906101000a900473ffffffffffffffffffffffffffffffffffffffff1673ffffffffffffffffffffffffffffffffffffffff163373ffffffffffffffffffffffffffffffffffffffff1614905090565b82805482825590600052602060002090810192821562000339579160200282015b82811115620003385782518255916020019190600101906200031b565b5b5090506200034891906200034c565b5090565b6200037191905b808211156200036d57600081600090555060010162000353565b5090565b90565b610ed280620003846000396000f3fe608060405234801561001057600080fd5b50600436106100a95760003560e01c80637adbf973116100715780637adbf973146102b85780638da5cb5b146102fc5780638f32d59b14610346578063a34e359614610368578063c8a4271f14610409578063f2fde38b14610453576100a9565b806301ffc9a7146100ae57806306d5d0b61461011357806350e9a71514610155578063715018a6146101f657806379cf92d314610200575b600080fd5b6100f9600480360360208110156100c457600080fd5b8101908080357bffffffffffffffffffffffffffffffffffffffffffffffffffffffff19169060200190929190505050610497565b604051808215151515815260200191505060405180910390f35b61013f6004803603602081101561012957600080fd5b81019080803590602001909291905050506105ca565b6040518082815260200191505060405180910390f35b6101e06004803603606081101561016b57600080fd5b810190808035906020019064010000000081111561018857600080fd5b82018360208201111561019a57600080fd5b803590602001918460018302840111640100000000831117156101bc57600080fd5b909192939192939080359060200190929190803590602001909291905050506105eb565b6040518082815260200191505060405180910390f35b6101fe610708565b005b6102b66004803603602081101561021657600080fd5b810190808035906020019064010000000081111561023357600080fd5b82018360208201111561024557600080fd5b8035906020019184602083028401116401000000008311171561026757600080fd5b919080806020026020016040519081016040528093929190818152602001838360200280828437600081840152601f19601f8201169050808301925050505050505091929192905050506107d8565b005b6102fa600480360360208110156102ce57600080fd5b81019080803573ffffffffffffffffffffffffffffffffffffffff16906020019092919050505061087b565b005b610304610933565b604051808273ffffffffffffffffffffffffffffffffffffffff1673ffffffffffffffffffffffffffffffffffffffff16815260200191505060405180910390f35b61034e61095c565b604051808215151515815260200191505060405180910390f35b6103f36004803603606081101561037e57600080fd5b810190808035906020019064010000000081111561039b57600080fd5b8201836020820111156103ad57600080fd5b803590602001918460018302840111640100000000831117156103cf57600080fd5b909192939192939080359060200190929190803590602001909291905050506109b3565b6040518082815260200191505060405180910390f35b610411610a16565b604051808273ffffffffffffffffffffffffffffffffffffffff1673ffffffffffffffffffffffffffffffffffffffff16815260200191505060405180910390f35b6104956004803603602081101561046957600080fd5b81019080803573ffffffffffffffffffffffffffffffffffffffff169060200190929190505050610a3c565b005b600060405180807f737570706f727473496e74657266616365286279746573342900000000000000815250601901905060405180910390207bffffffffffffffffffffffffffffffffffffffffffffffffffffffff1916827bffffffffffffffffffffffffffffffffffffffffffffffffffffffff191614806105c3575060405180807f7072656d69756d28737472696e672c75696e743235362c75696e743235362900815250601f019050604051809103902060405180807f707269636528737472696e672c75696e743235362c75696e7432353629000000815250601d0190506040518091039020187bffffffffffffffffffffffffffffffffffffffffffffffffffffffff1916827bffffffffffffffffffffffffffffffffffffffffffffffffffffffff1916145b9050919050565b600181815481106105d757fe5b906000526020600020016000915090505481565b60008061063b86868080601f016020809104026020016040519081016040528093929190818152602001838380828437600081840152601f19601f82011690508083019250505050505050610a59565b90506001805490508111156106535760018054905090505b6000811161066057600080fd5b600061068e8460018085038154811061067557fe5b9060005260206000200154610bcf90919063ffffffff16565b90506106f16106e288888080601f016020809104026020016040519081016040528093929190818152602001838380828437600081840152601f19601f820116905080830192505050505050508787610c09565b82610c1590919063ffffffff16565b90506106fc81610c34565b92505050949350505050565b61071061095c565b61071957600080fd5b600073ffffffffffffffffffffffffffffffffffffffff166000809054906101000a900473ffffffffffffffffffffffffffffffffffffffff1673ffffffffffffffffffffffffffffffffffffffff167f8be0079c531659141344cd1fd0a4f28419497f9722a3daafe3b4186f6b6457e060405160405180910390a360008060006101000a81548173ffffffffffffffffffffffffffffffffffffffff021916908373ffffffffffffffffffffffffffffffffffffffff160217905550565b6107e061095c565b6107e957600080fd5b80600190805190602001906107ff929190610e2b565b507f73422d94aedd596c2d4d39f27a01033adc390a9054efaf259afefd95ef7331df816040518080602001828103825283818151815260200191508051906020019060200280838360005b8381101561086557808201518184015260208101905061084a565b505050509050019250505060405180910390a150565b61088361095c565b61088c57600080fd5b80600260006101000a81548173ffffffffffffffffffffffffffffffffffffffff021916908373ffffffffffffffffffffffffffffffffffffffff1602179055507f0e05ae75e8b926552cf6fcd744d19f422561e3ced1e426868730852702dbe41881604051808273ffffffffffffffffffffffffffffffffffffffff1673ffffffffffffffffffffffffffffffffffffffff16815260200191505060405180910390a150565b60008060009054906101000a900473ffffffffffffffffffffffffffffffffffffffff16905090565b60008060009054906101000a900473ffffffffffffffffffffffffffffffffffffffff1673ffffffffffffffffffffffffffffffffffffffff163373ffffffffffffffffffffffffffffffffffffffff1614905090565b6000610a0c610a0786868080601f016020809104026020016040519081016040528093929190818152602001838380828437600081840152601f19601f820116905080830192505050505050508585610c09565b610c34565b9050949350505050565b600260009054906101000a900473ffffffffffffffffffffffffffffffffffffffff1681565b610a4461095c565b610a4d57600080fd5b610a5681610d0d565b50565b6000806000809050600084519050600092505b80821015610bc4576000858381518110610a8257fe5b602001015160f81c60f81b9050608060f81b817effffffffffffffffffffffffffffffffffffffffffffffffffffffffffffff19161015610ac857600183019250610bb6565b60e060f81b817effffffffffffffffffffffffffffffffffffffffffffffffffffffffffffff19161015610b0157600283019250610bb5565b60f060f81b817effffffffffffffffffffffffffffffffffffffffffffffffffffffffffffff19161015610b3a57600383019250610bb4565b60f8801b817effffffffffffffffffffffffffffffffffffffffffffffffffffffffffffff19161015610b7257600483019250610bb3565b60fc60f81b817effffffffffffffffffffffffffffffffffffffffffffffffffffffffffffff19161015610bab57600583019250610bb2565b6006830192505b5b5b5b5b508280600101935050610a6c565b829350505050919050565b600080831415610be25760009050610c03565b6000828402905082848281610bf357fe5b0414610bfe57600080fd5b809150505b92915050565b60008090509392505050565b600080828401905083811015610c2a57600080fd5b8091505092915050565b600080600260009054906101000a900473ffffffffffffffffffffffffffffffffffffffff1673ffffffffffffffffffffffffffffffffffffffff166350d25bcd6040518163ffffffff1660e01b815260040160206040518083038186803b158015610c9f57600080fd5b505afa158015610cb3573d6000803e3d6000fd5b505050506040513d6020811015610cc957600080fd5b81019080805190602001909291905050509050610d0581610cf76305f5e10086610bcf90919063ffffffff16565b610e0590919063ffffffff16565b915050919050565b600073ffffffffffffffffffffffffffffffffffffffff168173ffffffffffffffffffffffffffffffffffffffff161415610d4757600080fd5b8073ffffffffffffffffffffffffffffffffffffffff166000809054906101000a900473ffffffffffffffffffffffffffffffffffffffff1673ffffffffffffffffffffffffffffffffffffffff167f8be0079c531659141344cd1fd0a4f28419497f9722a3daafe3b4186f6b6457e060405160405180910390a3806000806101000a81548173ffffffffffffffffffffffffffffffffffffffff021916908373ffffffffffffffffffffffffffffffffffffffff16021790555050565b6000808211610e1357600080fd5b6000828481610e1e57fe5b0490508091505092915050565b828054828255906000526020600020908101928215610e67579160200282015b82811115610e66578251825591602001919060010190610e4b565b5b509050610e749190610e78565b5090565b610e9a91905b80821115610e96576000816000905550600101610e7e565b5090565b9056fea265627a7a72315820074494fb842ba884170014289437af1784e1b39522dc7f495cabf4e202c3d0ea64736f6c63430005100032",
  "source": "pragma solidity >=0.5.0;\n\nimport \"./PriceOracle.sol\";\nimport \"./SafeMath.sol\";\nimport \"./StringUtils.sol\";\nimport \"openzeppelin-solidity/contracts/ownership/Ownable.sol\";\n\ninterface AggregatorInterface {\n  function latestAnswer() external view returns (int256);\n}\n\n\n// StablePriceOracle sets a price in USD, based on an oracle.\ncontract StablePriceOracle is Ownable, PriceOracle {\n    using SafeMath for *;\n    using StringUtils for *;\n\n    // Rent in base price units by length. Element 0 is for 1-length names, and so on.\n    uint[] public rentPrices;\n\n    // Oracle address\n    AggregatorInterface public usdOracle;\n\n    event OracleChanged(address oracle);\n\n    event RentPriceChanged(uint[] prices);\n\n    bytes4 constant private INTERFACE_META_ID = bytes4(keccak256(\"supportsInterface(bytes4)\"));\n    bytes4 constant private ORACLE_ID = bytes4(keccak256(\"price(string,uint256,uint256)\") ^ keccak256(\"premium(string,uint256,uint256)\"));\n\n    constructor(AggregatorInterface _usdOracle, uint[] memory _rentPrices) public {\n        usdOracle = _usdOracle;\n        setPrices(_rentPrices);\n    }\n\n    function price(string calldata name, uint expires, uint duration) external view returns(uint) {\n        uint len = name.strlen();\n        if(len > rentPrices.length) {\n            len = rentPrices.length;\n        }\n        require(len > 0);\n        \n        uint basePrice = rentPrices[len - 1].mul(duration);\n        basePrice = basePrice.add(_premium(name, expires, duration));\n\n        return attoUSDToWei(basePrice);\n    }\n\n    /**\n     * @dev Sets rent prices.\n     * @param _rentPrices The price array. Each element corresponds to a specific\n     *                    name length; names longer than the length of the array\n     *                    default to the price of the last element. Values are\n     *                    in base price units, equal to one attodollar (1e-18\n     *                    dollar) each.\n     */\n    function setPrices(uint[] memory _rentPrices) public onlyOwner {\n        rentPrices = _rentPrices;\n        emit RentPriceChanged(_rentPrices);\n    }\n\n    /**\n     * @dev Sets the price oracle address\n     * @param _usdOracle The address of the price oracle to use.\n     */\n    function setOracle(AggregatorInterface _usdOracle) public onlyOwner {\n        usdOracle = _usdOracle;\n        emit OracleChanged(address(_usdOracle));\n    }\n\n    /**\n     * @dev Returns the pricing premium in wei.\n     */\n    function premium(string calldata name, uint expires, uint duration) external view returns(uint) {\n        return attoUSDToWei(_premium(name, expires, duration));\n    }\n\n    /**\n     * @dev Returns the pricing premium in internal base units.\n     */\n    function _premium(string memory name, uint expires, uint duration) internal view returns(uint) {\n        return 0;\n    }\n\n    function attoUSDToWei(uint amount) internal view returns(uint) {\n        uint ethPrice = uint(usdOracle.latestAnswer());\n        return amount.mul(1e8).div(ethPrice);\n    }\n\n    function weiToAttoUSD(uint amount) internal view returns(uint) {\n        uint ethPrice = uint(usdOracle.latestAnswer());\n        return amount.mul(ethPrice).div(1e8);\n    }\n\n    function supportsInterface(bytes4 interfaceID) public view returns (bool) {\n        return interfaceID == INTERFACE_META_ID || interfaceID == ORACLE_ID;\n    }\n}\n",
  "sourcePath": "/Users/makoto/work/ens/ethregistrar/contracts/StablePriceOracle.sol",
  "compiler": {
    "name": "solc",
    "version": "0.5.16+commit.9c3226ce.Emscripten.clang"
  },
  "schemaVersion": "3.3.3",
  "updatedAt": "2021-02-04T03:28:15.059Z",
  "networkType": "ethereum",
  "devdoc": {
    "methods": {
      "isOwner()": {
        "return": "true if `msg.sender` is the owner of the contract."
      },
      "owner()": {
        "return": "the address of the owner."
      },
      "premium(string,uint256,uint256)": {
        "details": "Returns the pricing premium in wei."
      },
      "renounceOwnership()": {
        "details": "Allows the current owner to relinquish control of the contract."
      },
      "setOracle(address)": {
        "details": "Sets the price oracle address",
        "params": {
          "_usdOracle": "The address of the price oracle to use."
        }
      },
      "setPrices(uint256[])": {
        "details": "Sets rent prices.",
        "params": {
          "_rentPrices": "The price array. Each element corresponds to a specific                   name length; names longer than the length of the array                   default to the price of the last element. Values are                   in base price units, equal to one attodollar (1e-18                   dollar) each."
        }
      },
      "transferOwnership(address)": {
        "details": "Allows the current owner to transfer control of the contract to a newOwner.",
        "params": {
          "newOwner": "The address to transfer ownership to."
        }
      }
    }
  },
  "userdoc": {
    "methods": {
      "renounceOwnership()": {
        "notice": "Renouncing to ownership will leave the contract without an owner. It will not be possible to call the functions with the `onlyOwner` modifier anymore."
      }
    }
  }
}