{
    "contractName": "HNSRegistrar",
    "abi": [
        {
            "inputs": [
                {
                    "internalType": "contract ENS",
                    "name": "_ens",
                    "type": "address"
                },
                {
                    "internalType": "string",
                    "name": "_namespace",
                    "type": "string"
                },
                {
                    "internalType": "contract IXNHNSOracle",
                    "name": "_oracle",
                    "type": "address"
                }
            ],
            "stateMutability": "nonpayable",
            "type": "constructor"
        },
        {
            "anonymous": false,
            "inputs": [
                {
                    "indexed": false,
                    "internalType": "address",
                    "name": "oracle",
                    "type": "address"
                }
            ],
            "name": "NewOracle",
            "type": "event"
        },
        {
            "anonymous": false,
            "inputs": [
                {
                    "indexed": true,
                    "internalType": "bytes32",
                    "name": "node",
                    "type": "bytes32"
                },
                {
                    "indexed": true,
                    "internalType": "bytes32",
                    "name": "label",
                    "type": "bytes32"
                },
                {
                    "indexed": false,
                    "internalType": "address",
                    "name": "owner",
                    "type": "address"
                }
            ],
            "name": "NewOwner",
            "type": "event"
        },
        {
            "anonymous": false,
            "inputs": [
                {
                    "indexed": true,
                    "internalType": "bytes32",
                    "name": "node",
                    "type": "bytes32"
                },
                {
                    "indexed": true,
                    "internalType": "address",
                    "name": "owner",
                    "type": "address"
                },
                {
                    "indexed": false,
                    "internalType": "address",
                    "name": "snitch",
                    "type": "address"
                },
                {
                    "indexed": false,
                    "internalType": "uint256",
                    "name": "snitchReward",
                    "type": "uint256"
                }
            ],
            "name": "SnitchedOn",
            "type": "event"
        },
        {
            "anonymous": false,
            "inputs": [
                {
                    "indexed": true,
                    "internalType": "bytes32",
                    "name": "node",
                    "type": "bytes32"
                },
                {
                    "indexed": true,
                    "internalType": "address",
                    "name": "owner",
                    "type": "address"
                },
                {
                    "indexed": false,
                    "internalType": "address",
                    "name": "snitch",
                    "type": "address"
                },
                {
                    "indexed": false,
                    "internalType": "uint256",
                    "name": "snitchPenalty",
                    "type": "uint256"
                }
            ],
            "name": "SnitchesGotStitches",
            "type": "event"
        },
        {
            "inputs": [
                {
                    "internalType": "string",
                    "name": "tld",
                    "type": "string"
                }
            ],
            "name": "_getNamehash",
            "outputs": [
                {
                    "internalType": "bytes32",
                    "name": "",
                    "type": "bytes32"
                }
            ],
            "stateMutability": "pure",
            "type": "function"
        },
        {
            "inputs": [
                {
                    "internalType": "bytes32",
                    "name": "node",
                    "type": "bytes32"
                }
            ],
            "name": "_getSnitch",
            "outputs": [
                {
                    "internalType": "address",
                    "name": "",
                    "type": "address"
                },
                {
                    "internalType": "uint256",
                    "name": "",
                    "type": "uint256"
                }
            ],
            "stateMutability": "view",
            "type": "function"
        },
        {
            "inputs": [
                {
                    "internalType": "bytes32",
                    "name": "node",
                    "type": "bytes32"
                }
            ],
            "name": "claimSnitchReward",
            "outputs": [
                {
                    "internalType": "bool",
                    "name": "",
                    "type": "bool"
                }
            ],
            "stateMutability": "nonpayable",
            "type": "function"
        },
        {
            "inputs": [],
            "name": "donateProfits",
            "outputs": [
                {
                    "internalType": "uint256",
                    "name": "",
                    "type": "uint256"
                }
            ],
            "stateMutability": "nonpayable",
            "type": "function"
        },
        {
            "inputs": [],
            "name": "ens",
            "outputs": [
                {
                    "internalType": "contract ENS",
                    "name": "",
                    "type": "address"
                }
            ],
            "stateMutability": "view",
            "type": "function"
        },
        {
            "inputs": [],
            "name": "minTLDDeposit",
            "outputs": [
                {
                    "internalType": "uint256",
                    "name": "",
                    "type": "uint256"
                }
            ],
            "stateMutability": "view",
            "type": "function"
        },
        {
            "inputs": [],
            "name": "namespace",
            "outputs": [
                {
                    "internalType": "string",
                    "name": "",
                    "type": "string"
                }
            ],
            "stateMutability": "view",
            "type": "function"
        },
        {
            "inputs": [],
            "name": "oracle",
            "outputs": [
                {
                    "internalType": "contract IXNHNSOracle",
                    "name": "",
                    "type": "address"
                }
            ],
            "stateMutability": "view",
            "type": "function"
        },
        {
            "inputs": [
                {
                    "internalType": "bytes32",
                    "name": "node",
                    "type": "bytes32"
                }
            ],
            "name": "register",
            "outputs": [
                {
                    "internalType": "uint256",
                    "name": "id",
                    "type": "uint256"
                }
            ],
            "stateMutability": "nonpayable",
            "type": "function"
        },
        {
            "inputs": [
                {
                    "internalType": "contract IXNHNSOracle",
                    "name": "_oracle",
                    "type": "address"
                }
            ],
            "name": "setOracle",
            "outputs": [
                {
                    "internalType": "bool",
                    "name": "",
                    "type": "bool"
                }
            ],
            "stateMutability": "nonpayable",
            "type": "function"
        },
        {
            "inputs": [],
            "name": "snitchDeposit",
            "outputs": [
                {
                    "internalType": "uint256",
                    "name": "",
                    "type": "uint256"
                }
            ],
            "stateMutability": "view",
            "type": "function"
        },
        {
            "inputs": [
                {
                    "internalType": "string",
                    "name": "tld",
                    "type": "string"
                }
            ],
            "name": "snitchOn",
            "outputs": [
                {
                    "internalType": "bytes32",
                    "name": "requestId",
                    "type": "bytes32"
                }
            ],
            "stateMutability": "payable",
            "type": "function"
        },
        {
            "inputs": [
                {
                    "internalType": "bytes4",
                    "name": "interfaceID",
                    "type": "bytes4"
                }
            ],
            "name": "supportsInterface",
            "outputs": [
                {
                    "internalType": "bool",
                    "name": "",
                    "type": "bool"
                }
            ],
            "stateMutability": "pure",
            "type": "function"
        },
        {
            "inputs": [
                {
                    "internalType": "bytes32",
                    "name": "",
                    "type": "bytes32"
                }
            ],
            "name": "tldDeposits",
            "outputs": [
                {
                    "internalType": "uint256",
                    "name": "",
                    "type": "uint256"
                }
            ],
            "stateMutability": "view",
            "type": "function"
        },
        {
            "inputs": [],
            "name": "totalDeposits",
            "outputs": [
                {
                    "internalType": "uint256",
                    "name": "",
                    "type": "uint256"
                }
            ],
            "stateMutability": "view",
            "type": "function"
        },
        {
            "inputs": [
                {
                    "internalType": "bytes32",
                    "name": "node",
                    "type": "bytes32"
                }
            ],
            "name": "unregister",
            "outputs": [],
            "stateMutability": "payable",
            "type": "function"
        },
        {
            "inputs": [
                {
                    "internalType": "string",
                    "name": "tld",
                    "type": "string"
                }
            ],
            "name": "verify",
            "outputs": [
                {
                    "internalType": "bytes32",
                    "name": "requestId",
                    "type": "bytes32"
                }
            ],
            "stateMutability": "payable",
            "type": "function"
        },
        {
            "inputs": [],
            "name": "xnhnsNS",
            "outputs": [
                {
                    "internalType": "string",
                    "name": "",
                    "type": "string"
                }
            ],
            "stateMutability": "view",
            "type": "function"
        },
        {
            "inputs": [],
            "name": "xnhnsOracle",
            "outputs": [
                {
                    "internalType": "contract IXNHNSOracle",
                    "name": "",
                    "type": "address"
                }
            ],
            "stateMutability": "view",
            "type": "function"
        }
    ],
    "bytecode": "60806040523480156200001157600080fd5b506040516200182938038062001829833981810160405260608110156200003757600080fd5b8151602083018051604051929492938301929190846401000000008211156200005f57600080fd5b9083019060208201858111156200007557600080fd5b82516401000000008111828201881017156200009057600080fd5b82525081516020918201929091019080838360005b83811015620000bf578181015183820152602001620000a5565b50505050905090810190601f168015620000ed5780820380516001836020036101000a031916815260200191505b50604052602090810151600080546001600160a01b0319166001600160a01b038816179055845190935062000129925060029185019062000184565b50600180546001600160a01b0383166001600160a01b0319909116811790915560408051918252517fb3eacd0e351fafdfefdec84e1cd19679b38dbcd63ea7c2c24da17fd2bc3b3c0e9181900360200190a150505062000230565b828054600181600116156101000203166002900490600052602060002090601f016020900481019282620001bc576000855562000207565b82601f10620001d757805160ff191683800117855562000207565b8280016001018555821562000207579182015b8281111562000207578251825591602001919060010190620001ea565b506200021592915062000219565b5090565b5b808211156200021557600081556001016200021a565b6115e980620002406000396000f3fe6080604052600436106101145760003560e01c80637adbf973116100a0578063a1dd8a7711610064578063a1dd8a771461043d578063ad71eeca14610452578063bb9c6c3e146104f8578063d005c0361461043d578063e1fa8e841461056857610114565b80637adbf973146103b65780637c015a89146103e95780637d882097146103fe5780637dc0d1d0146104135780638f81620b1461042857610114565b80633b58e4ab116100e75780633b58e4ab146101e65780633f15457f14610270578063451641b3146102a15780635a4ad697146103545780635faf61911461036957610114565b806301ffc9a7146101195780630b746ad0146101615780631a0919dc1461018b5780631b97d310146101aa575b600080fd5b34801561012557600080fd5b5061014d6004803603602081101561013c57600080fd5b50356001600160e01b031916610592565b604080519115158252519081900360200190f35b34801561016d57600080fd5b5061014d6004803603602081101561018457600080fd5b50356105cb565b6101a8600480360360208110156101a157600080fd5b5035610886565b005b3480156101b657600080fd5b506101d4600480360360208110156101cd57600080fd5b50356109aa565b60408051918252519081900360200190f35b3480156101f257600080fd5b506101fb6109bc565b6040805160208082528351818301528351919283929083019185019080838360005b8381101561023557818101518382015260200161021d565b50505050905090810190601f1680156102625780820380516001836020036101000a031916815260200191505b509250505060405180910390f35b34801561027c57600080fd5b50610285610a47565b604080516001600160a01b039092168252519081900360200190f35b3480156102ad57600080fd5b506101d4600480360360208110156102c457600080fd5b8101906020810181356401000000008111156102df57600080fd5b8201836020820111156102f157600080fd5b8035906020019184600183028401116401000000008311171561031357600080fd5b91908080601f016020809104026020016040519081016040528093929190818152602001838380828437600092019190915250929550610a56945050505050565b34801561036057600080fd5b506101d4610ad8565b34801561037557600080fd5b506103936004803603602081101561038c57600080fd5b5035610ae0565b604080516001600160a01b03909316835260208301919091528051918290030190f35b3480156103c257600080fd5b5061014d600480360360208110156103d957600080fd5b50356001600160a01b0316610b26565b3480156103f557600080fd5b506101fb610c07565b34801561040a57600080fd5b506101d4610c9a565b34801561041f57600080fd5b50610285610ca0565b34801561043457600080fd5b50610285610caf565b34801561044957600080fd5b506101d4610cbe565b6101d46004803603602081101561046857600080fd5b81019060208101813564010000000081111561048357600080fd5b82018360208201111561049557600080fd5b803590602001918460018302840111640100000000831117156104b757600080fd5b91908080601f016020809104026020016040519081016040528093929190818152602001838380828437600092019190915250929550610cca945050505050565b6101d46004803603602081101561050e57600080fd5b81019060208101813564010000000081111561052957600080fd5b82018360208201111561053b57600080fd5b8035906020019184600183028401116401000000008311171561055d57600080fd5b509092509050611052565b34801561057457600080fd5b506101d46004803603602081101561058b57600080fd5b503561127c565b60006001600160e01b031982166301ffc9a760e01b14806105c357506001600160e01b03198216633bea5c8360e01b145b90505b919050565b60008060006105d984610ae0565b9150915080611c20014211610629576040805162461bcd60e51b815260206004820152601160248201527010d85b9b9bdd081cdb9a5d18da081e595d607a1b604482015290519081900360640190fd5b600084815260046020526040812080546001600160a01b0319168155600101819055610653611480565b6001600160a01b0316636352211e8660001c6040518263ffffffff1660e01b81526004018082815260200191505060206040518083038186803b15801561069957600080fd5b505afa1580156106ad573d6000803e3d6000fd5b505050506040513d60208110156106c357600080fd5b505160015460408051634ab66bb760e11b81526004810189905290519293506000926001600160a01b039092169163956cd76e9160248082019260209290919082900301818787803b15801561071857600080fd5b505af115801561072c573d6000803e3d6000fd5b505050506040513d602081101561074257600080fd5b50516001600160a01b0316141561081757600061075e866114fe565b6040519091506001600160a01b0385169067016345785d8a0000600284040180156108fc02916000818181858888f193505050501580156107a3573d6000803e3d6000fd5b506003805482900367016345785d89ffff190190556001600160a01b038216867fee1dc4697e8a3e72db48aa00a58fb709a4c785e1a41f465dfbd6c332b96554c386600285604080516001600160a01b03909416845291900460208301528051918290030190a360019450505050506105c6565b6003805467016345785d89ffff19019055604080516001600160a01b03858116825267016345785d8a0000602083015282519084169288927ffb10e4d5b9578eb746b2e4f6ffb9195e1b1c4d4a05075f8229c457107d0f77ac929081900390910190a3600093505050506105c6565b806000610891611480565b6001600160a01b0316636352211e836040518263ffffffff1660e01b81526004018082815260200191505060206040518083038186803b1580156108d457600080fd5b505afa1580156108e8573d6000803e3d6000fd5b505050506040513d60208110156108fe57600080fd5b50519050336001600160a01b0382161461095f576040805162461bcd60e51b815260206004820152601d60248201527f4f6e6c7920544c44206f776e65722063616e20756e7265676973746572000000604482015290519081900360640190fd5b600061096a846114fe565b6040519091506001600160a01b0383169082156108fc029083906000818181858888f193505050501580156109a3573d6000803e3d6000fd5b5050505050565b60056020526000908152604090205481565b6002805460408051602060018416156101000260001901909316849004601f81018490048402820184019092528181529291830182828015610a3f5780601f10610a1457610100808354040283529160200191610a3f565b820191906000526020600020905b815481529060010190602001808311610a2257829003601f168201915b505050505081565b6000546001600160a01b031681565b60008060001b826040516020018083815260200182805190602001908083835b60208310610a955780518252601f199092019160209182019101610a76565b6001836020036101000a03801982511681845116808217855250505050505090500192505050604051602081830303815290604052805190602001209050919050565b600354470390565b600080610aeb61159c565b505050600090815260046020908152604091829020825180840190935280546001600160a01b03168084526001909101549290910182905291565b6000610b30611480565b6001600160a01b0316638da5cb5b6040518163ffffffff1660e01b815260040160206040518083038186803b158015610b6857600080fd5b505afa158015610b7c573d6000803e3d6000fd5b505050506040513d6020811015610b9257600080fd5b50516001600160a01b03163314610ba857600080fd5b600180546001600160a01b0319166001600160a01b03848116919091179182905560408051929091168252517fb3eacd0e351fafdfefdec84e1cd19679b38dbcd63ea7c2c24da17fd2bc3b3c0e916020908290030190a1506001919050565b60028054604080516020601f6000196101006001871615020190941685900493840181900481028201810190925282815260609390929091830182828015610c905780601f10610c6557610100808354040283529160200191610c90565b820191906000526020600020905b815481529060010190602001808311610c7357829003601f168201915b5050505050905090565b60035481565b6001546001600160a01b031690565b6001546001600160a01b031681565b67016345785d8a000081565b6001546040805163203580bf60e21b815230600482015290516000926001600160a01b0316916380d602fc91602480830192602092919082900301818787803b158015610d1657600080fd5b505af1158015610d2a573d6000803e3d6000fd5b505050506040513d6020811015610d4057600080fd5b5051610d88576040805162461bcd60e51b8152602060048201526012602482015271149959da5cdd1c985c88191a5cd8589b195960721b604482015290519081900360640190fd5b67016345785d8a0000341015610de5576040805162461bcd60e51b815260206004820152601b60248201527f496e73756666696369656e7420736e69746368206465706f7369740000000000604482015290519081900360640190fd5b6000610df083610a56565b60005460408051631ef3fca760e31b81526004810184905290519293506001600160a01b039091169163f79fe53891602480820192602092909190829003018186803b158015610e3f57600080fd5b505afa158015610e53573d6000803e3d6000fd5b505050506040513d6020811015610e6957600080fd5b5051610ebc576040805162461bcd60e51b815260206004820152601f60248201527f43616e7420736e69746368206f6e20756e7265676973746572656420544c4400604482015290519081900360640190fd5b6000610ec782610ae0565b5090506001600160a01b03811615610f26576040805162461bcd60e51b815260206004820152601760248201527f544c4420616c726561647920736e697463686564206f6e000000000000000000604482015290519081900360640190fd5b60408051808201825233815242602080830191825260008681526004808352858220945185546001600160a01b0319166001600160a01b0391821617865593516001958601556003805467016345785d8a000001905593549451636090b57b60e01b81529384018281528951602486015289519590931694636090b57b948a94938493604490920192908601918190849084905b83811015610fd2578181015183820152602001610fba565b50505050905090810190601f168015610fff5780820380516001836020036101000a031916815260200191505b5092505050602060405180830381600087803b15801561101e57600080fd5b505af1158015611032573d6000803e3d6000fd5b505050506040513d602081101561104857600080fd5b5051949350505050565b6001546040805163203580bf60e21b815230600482015290516000926001600160a01b0316916380d602fc91602480830192602092919082900301818787803b15801561109e57600080fd5b505af11580156110b2573d6000803e3d6000fd5b505050506040513d60208110156110c857600080fd5b5051611110576040805162461bcd60e51b8152602060048201526012602482015271149959da5cdd1c985c88191a5cd8589b195960721b604482015290519081900360640190fd5b67016345785d8a000034101561116d576040805162461bcd60e51b815260206004820152601860248201527f496e73756666696369656e7420746c64206465706f7369740000000000000000604482015290519081900360640190fd5b34600560006111b186868080601f016020809104026020016040519081016040528093929190818152602001838380828437600092019190915250610a5692505050565b81526020808201929092526040908101600020805490930190925560038054340190556001549151636090b57b60e01b815260048101918252602481018590526001600160a01b0390921691636090b57b9186918691908190604401848480828437600081840152601f19601f8201169050808301925050509350505050602060405180830381600087803b15801561124957600080fd5b505af115801561125d573d6000803e3d6000fd5b505050506040513d602081101561127357600080fd5b50519392505050565b60015460408051634ab66bb760e11b815260048101849052905160009283926001600160a01b039091169163956cd76e9160248082019260209290919082900301818787803b1580156112ce57600080fd5b505af11580156112e2573d6000803e3d6000fd5b505050506040513d60208110156112f857600080fd5b505190506001600160a01b038116611357576040805162461bcd60e51b815260206004820181905260248201527f544c4420697320696e76616c6964206f6e2074686973206e616d657370616365604482015290519081900360640190fd5b6001600160a01b03811633146113b4576040805162461bcd60e51b815260206004820152601b60248201527f4f6e6c7920544c44206f776e65722063616e2072656769737465720000000000604482015290519081900360640190fd5b6113bc611480565b6001600160a01b031663dbbdf0838460001c336040518363ffffffff1660e01b815260040180838152602001826001600160a01b0316815260200192505050602060405180830381600087803b15801561141557600080fd5b505af1158015611429573d6000803e3d6000fd5b505050506040513d602081101561143f57600080fd5b505060408051338152905184916000917fce0457fe73731f824cc272376169235128c118b49d344817417c6d108d155e829181900360200190a35090919050565b60008054604080516302571be360e01b81526004810184905290516001600160a01b03909216916302571be391602480820192602092909190829003018186803b1580156114cd57600080fd5b505afa1580156114e1573d6000803e3d6000fd5b505050506040513d60208110156114f757600080fd5b5051905090565b6000611508611480565b6001600160a01b031663a02b161e8360001c6040518263ffffffff1660e01b815260040180828152602001915050602060405180830381600087803b15801561155057600080fd5b505af1158015611564573d6000803e3d6000fd5b505050506040513d602081101561157a57600080fd5b5050506000908152600560205260408120805460038054829003905591905590565b60408051808201909152600080825260208201529056fea264697066735822122070a62a1b434f307a239eabc8c2810efd754327ad77b71c76b6f2e46709c3946464736f6c63430007040033",
    "sourcePath": "/Users/kiba/code/titans_of_data/xnhns/packages/hardhat/contracts/registrars/HNSRegistrar.sol",
    "compiler": {
        "name": "solc",
        "version": "0.7.4+commit.3f05b770"
    },
    "functionHashes": {
        "_getNamehash(string)": "451641b3",
        "_getSnitch(bytes32)": "5faf6191",
        "claimSnitchReward(bytes32)": "0b746ad0",
        "donateProfits()": "5a4ad697",
        "ens()": "3f15457f",
        "minTLDDeposit()": "d005c036",
        "namespace()": "7c015a89",
        "oracle()": "7dc0d1d0",
        "register(bytes32)": "e1fa8e84",
        "setOracle(address)": "7adbf973",
        "snitchDeposit()": "a1dd8a77",
        "snitchOn(string)": "ad71eeca",
        "supportsInterface(bytes4)": "01ffc9a7",
        "tldDeposits(bytes32)": "1b97d310",
        "totalDeposits()": "7d882097",
        "unregister(bytes32)": "1a0919dc",
        "verify(string)": "bb9c6c3e",
        "xnhnsNS()": "3b58e4ab",
        "xnhnsOracle()": "8f81620b"
    },
    "gasEstimates": {
        "creation": {
            "codeDepositCost": "1121800",
            "executionCost": "infinite",
            "totalCost": "infinite"
        },
        "external": {
            "_getNamehash(string)": "infinite",
            "_getSnitch(bytes32)": "2263",
            "claimSnitchReward(bytes32)": "infinite",
            "donateProfits()": "1095",
            "ens()": "1082",
            "minTLDDeposit()": "286",
            "namespace()": "infinite",
            "oracle()": "1126",
            "register(bytes32)": "infinite",
            "setOracle(address)": "infinite",
            "snitchDeposit()": "220",
            "snitchOn(string)": "infinite",
            "supportsInterface(bytes4)": "393",
            "tldDeposits(bytes32)": "1196",
            "totalDeposits()": "1065",
            "unregister(bytes32)": "infinite",
            "verify(string)": "infinite",
            "xnhnsNS()": "infinite",
            "xnhnsOracle()": "1148"
        },
        "internal": {
            "_getRoot()": "infinite",
            "_unregister(bytes32)": "infinite"
        }
    }
}